******************************************************************************
                  TI ARM Linker PC v18.1.3                     
******************************************************************************
>> Linked Mon Nov 16 19:33:05 2020

OUTPUT FILE NAME:   <systickapi.out>
ENTRY POINT SYMBOL: "_c_int00_noargs"  address: 000015b1


MEMORY CONFIGURATION

         name            origin    length      used     unused   attr    fill
----------------------  --------  ---------  --------  --------  ----  --------
  FLASH                 00000000   00040000  00001970  0003e690  R  X
  SRAM                  20000000   00008000  0000046c  00007b94  RW X


SEGMENT ALLOCATION MAP

run origin  load origin   length   init length attrs members
----------  ----------- ---------- ----------- ----- -------
00000000    00000000    00001974   00001974    r-x
  00000000    00000000    0000026c   0000026c    r-- .intvecs
  0000026c    0000026c    00001474   00001474    r-x .text
  000016e0    000016e0    0000027c   0000027c    r-- .const
  00001960    00001960    00000014   00000014    r-- .cinit
20000000    20000000    00000470   00000000    rw-
  20000000    20000000    0000026c   00000000    rw- .vtable
  20000270    20000270    00000200   00000000    rw- .stack


SECTION ALLOCATION MAP

 output                                  attributes/
section   page    origin      length       input sections
--------  ----  ----------  ----------   ----------------
.intvecs   0    00000000    0000026c     
                  00000000    0000026c     tm4c123gh6pm_startup_ccs.obj (.intvecs)

.text      0    0000026c    00001474     
                  0000026c    000010c4     main.obj (.text)
                  00001330    0000016c     driverlib.lib : gpio.obj (.text:GPIOPadConfigSet)
                  0000149c    00000068                   : interrupt.obj (.text:IntDisable)
                  00001504    00000068                   : interrupt.obj (.text:IntEnable)
                  0000156c    00000044     rtsv7M4_T_le_v4SPD16_eabi.lib : autoinit.c.obj (.text:__TI_auto_init_nobinit_nopinit:__TI_auto_init_nobinit_nopinit)
                  000015b0    00000038                                   : boot_cortex_m.c.obj (.text:_c_int00_noargs:_c_int00_noargs)
                  000015e8    00000034     driverlib.lib : interrupt.obj (.text:IntRegister)
                  0000161c    0000002c                   : gpio.obj (.text:GPIODirModeSet)
                  00001648    0000001a                   : gpio.obj (.text:GPIOPinTypeGPIOOutput)
                  00001662    00000016                   : gpio.obj (.text:GPIOPinTypeGPIOInput)
                  00001678    00000014                   : interrupt.obj (.text:IntUnregister)
                  0000168c    00000012     rtsv7M4_T_le_v4SPD16_eabi.lib : copy_zero_init.c.obj (.text:decompress:ZI:__TI_zero_init_nomemset:__TI_zero_init_nomemset)
                  0000169e    00000010     driverlib.lib : interrupt.obj (.text:IntMasterEnable)
                  000016ae    0000000c                   : cpu.obj (.text:CPUcpsie)
                  000016ba    0000000c     tm4c123gh6pm_startup_ccs.obj (.text)
                  000016c6    00000006     driverlib.lib : gpio.obj (.text:GPIOPinWrite)
                  000016cc    00000006     main.obj (.text:SysCtlDelay)
                  000016d2    00000004     driverlib.lib : cpu.obj (.text:CPUwfi)
                  000016d6    00000004     rtsv7M4_T_le_v4SPD16_eabi.lib : pre_init.c.obj (.text:_system_pre_init)
                  000016da    00000004                                   : exit.c.obj (.text:abort:abort)
                  000016de    00000002     driverlib.lib : interrupt.obj (.text:_IntDefaultHandler)

.const     0    000016e0    0000027c     
                  000016e0    000001b0     main.obj (.const:g_pppui32XTALtoVCO)
                  00001890    0000006c     main.obj (.const:g_pui32Xtals)
                  000018fc    00000030     main.obj (.const:g_sXTALtoMEMTIM)
                  0000192c    00000014     driverlib.lib : interrupt.obj (.const:g_pui32Dii16Regs)
                  00001940    00000014                   : interrupt.obj (.const:g_pui32EnRegs)
                  00001954    00000008     main.obj (.const:g_pui32VCOFrequencies)

.cinit     0    00001960    00000014     
                  00001960    00000008     (.cinit..vtable.load) [load image, compression = zero_init]
                  00001968    00000004     (__TI_handler_table)
                  0000196c    00000008     (__TI_cinit_table)

.init_array 
*          0    00000000    00000000     UNINITIALIZED

.vtable    0    20000000    0000026c     UNINITIALIZED
                  20000000    0000026c     driverlib.lib : interrupt.obj (.vtable)

.stack     0    20000270    00000200     UNINITIALIZED
                  20000270    00000004     rtsv7M4_T_le_v4SPD16_eabi.lib : boot_cortex_m.c.obj (.stack)
                  20000274    000001fc     --HOLE--

MODULE SUMMARY

       Module                         code   ro data   rw data
       ------                         ----   -------   -------
    .\
       main.obj                       4298   596       0      
       tm4c123gh6pm_startup_ccs.obj   12     620       0      
    +--+------------------------------+------+---------+---------+
       Total:                         4310   1216      0      
                                                              
    C:/ti/TivaWare_C_Series-2.2.0.295/driverlib/ccs/Debug/driverlib.lib
       interrupt.obj                  298    40        620    
       gpio.obj                       462    0         0      
       cpu.obj                        16     0         0      
    +--+------------------------------+------+---------+---------+
       Total:                         776    40        620    
                                                              
    C:\ti\ccsv8\tools\compiler\ti-cgt-arm_18.1.3.LTS\lib\rtsv7M4_T_le_v4SPD16_eabi.lib
       autoinit.c.obj                 68     0         0      
       boot_cortex_m.c.obj            56     0         0      
       copy_zero_init.c.obj           18     0         0      
       exit.c.obj                     4      0         0      
       pre_init.c.obj                 4      0         0      
    +--+------------------------------+------+---------+---------+
       Total:                         150    0         0      
                                                              
       Stack:                         0      0         512    
       Linker Generated:              0      20        0      
    +--+------------------------------+------+---------+---------+
       Grand Total:                   5236   1276      1132   


LINKER GENERATED COPY TABLES

__TI_cinit_table @ 0000196c records: 1, size/record: 8, table size: 8
	.vtable: load addr=00001960, load size=00000008 bytes, run addr=20000000, run size=0000026c bytes, compression=zero_init


LINKER GENERATED HANDLER TABLE

__TI_handler_table @ 00001968 records: 1, size/record: 4, table size: 4
	index: 0, handler: __TI_zero_init


GLOBAL SYMBOLS: SORTED ALPHABETICALLY BY Name 

address   name                            
-------   ----                            
000016db  C$$EXIT                         
000016af  CPUcpsie                        
000016d3  CPUwfi                          
0000161d  GPIODirModeSet                  
00001331  GPIOPadConfigSet                
00001663  GPIOPinTypeGPIOInput            
00001649  GPIOPinTypeGPIOOutput           
000016c7  GPIOPinWrite                    
0000149d  IntDisable                      
00001505  IntEnable                       
0000169f  IntMasterEnable                 
000015e9  IntRegister                     
00001679  IntUnregister                   
000016bb  ResetISR                        
00001277  SetInitSettings                 
000011a9  SysCtlAltClkConfig              
000008d1  SysCtlClockFreqSet              
00000d99  SysCtlClockGet                  
0000118d  SysCtlClockOutConfig            
00000bc9  SysCtlClockSet                  
000007d5  SysCtlDeepSleep                 
00000f5d  SysCtlDeepSleepClockConfigSet   
00000f3f  SysCtlDeepSleepClockSet         
000007b5  SysCtlDeepSleepPowerSet         
000016cd  SysCtlDelay                     
00000363  SysCtlFlashSectorSizeGet        
00000337  SysCtlFlashSizeGet              
00001033  SysCtlGPIOAHBDisable            
00001017  SysCtlGPIOAHBEnable             
00000749  SysCtlIntClear                  
00000731  SysCtlIntDisable                
0000071d  SysCtlIntEnable                 
000006f5  SysCtlIntRegister               
00000759  SysCtlIntStatus                 
0000070d  SysCtlIntUnregister             
0000079b  SysCtlLDODeepSleepGet           
0000078b  SysCtlLDODeepSleepSet           
00000785  SysCtlLDOSleepGet               
00000775  SysCtlLDOSleepSet               
0000080b  SysCtlMOSCConfigSet             
00001171  SysCtlNMIClear                  
0000115d  SysCtlNMIStatus                 
00000821  SysCtlPIOSCCalibrate            
00001001  SysCtlPWMClockGet               
00000fe7  SysCtlPWMClockSet               
000006a1  SysCtlPeripheralClockGating     
00000659  SysCtlPeripheralDeepSleepDisable
00000609  SysCtlPeripheralDeepSleepEnable 
00000545  SysCtlPeripheralDisable         
00000509  SysCtlPeripheralEnable          
00000445  SysCtlPeripheralPowerOff        
00000409  SysCtlPeripheralPowerOn         
00000389  SysCtlPeripheralPresent         
000003c9  SysCtlPeripheralReady           
00000481  SysCtlPeripheralReset           
000005cd  SysCtlPeripheralSleepDisable    
00000589  SysCtlPeripheralSleepEnable     
000007c5  SysCtlReset                     
00000881  SysCtlResetBehaviorGet          
00000871  SysCtlResetBehaviorSet          
000007f7  SysCtlResetCauseClear           
000007f1  SysCtlResetCauseGet             
0000032d  SysCtlSRAMSizeGet               
000007cd  SysCtlSleep                     
000007a1  SysCtlSleepPowerSet             
0000105b  SysCtlUSBPLLDisable             
0000104f  SysCtlUSBPLLEnable              
000010a1  SysCtlVCOGet                    
00001089  SysCtlVoltageEventClear         
0000106d  SysCtlVoltageEventConfig        
0000107d  SysCtlVoltageEventStatus        
000011c5  SysTickDisable                  
000011b9  SysTickEnable                   
000012c1  SysTickInit                     
00001209  SysTickIntDisable               
000011fd  SysTickIntEnable                
000011d1  SysTickIntRegister              
000011e9  SysTickIntUnregister            
00001227  SysTickPeriodGet                
00001215  SysTickPeriodSet                
0000122f  SysTickValueGet                 
20000470  __STACK_END                     
00000200  __STACK_SIZE                    
20000470  __STACK_TOP                     
0000196c  __TI_CINIT_Base                 
00001974  __TI_CINIT_Limit                
00001968  __TI_Handler_Table_Base         
0000196c  __TI_Handler_Table_Limit        
0000156d  __TI_auto_init_nobinit_nopinit  
ffffffff  __TI_pprof_out_hndl             
ffffffff  __TI_prof_data_size             
ffffffff  __TI_prof_data_start            
00000000  __TI_static_base__              
0000168d  __TI_zero_init_nomemset         
ffffffff  __binit__                       
ffffffff  __c_args__                      
UNDEFED   __mpu_init                      
20000270  __stack                         
000015b1  _c_int00_noargs                 
UNDEFED   _system_post_cinit              
000016d7  _system_pre_init                
000016db  abort                           
ffffffff  binit                           
20000000  g_pfnRAMVectors                 
00000000  g_pfnVectors                    
00001245  main                            
000012d3  systicintcontrol                


GLOBAL SYMBOLS: SORTED BY Symbol Address 

address   name                            
-------   ----                            
00000000  __TI_static_base__              
00000000  g_pfnVectors                    
00000200  __STACK_SIZE                    
0000032d  SysCtlSRAMSizeGet               
00000337  SysCtlFlashSizeGet              
00000363  SysCtlFlashSectorSizeGet        
00000389  SysCtlPeripheralPresent         
000003c9  SysCtlPeripheralReady           
00000409  SysCtlPeripheralPowerOn         
00000445  SysCtlPeripheralPowerOff        
00000481  SysCtlPeripheralReset           
00000509  SysCtlPeripheralEnable          
00000545  SysCtlPeripheralDisable         
00000589  SysCtlPeripheralSleepEnable     
000005cd  SysCtlPeripheralSleepDisable    
00000609  SysCtlPeripheralDeepSleepEnable 
00000659  SysCtlPeripheralDeepSleepDisable
000006a1  SysCtlPeripheralClockGating     
000006f5  SysCtlIntRegister               
0000070d  SysCtlIntUnregister             
0000071d  SysCtlIntEnable                 
00000731  SysCtlIntDisable                
00000749  SysCtlIntClear                  
00000759  SysCtlIntStatus                 
00000775  SysCtlLDOSleepSet               
00000785  SysCtlLDOSleepGet               
0000078b  SysCtlLDODeepSleepSet           
0000079b  SysCtlLDODeepSleepGet           
000007a1  SysCtlSleepPowerSet             
000007b5  SysCtlDeepSleepPowerSet         
000007c5  SysCtlReset                     
000007cd  SysCtlSleep                     
000007d5  SysCtlDeepSleep                 
000007f1  SysCtlResetCauseGet             
000007f7  SysCtlResetCauseClear           
0000080b  SysCtlMOSCConfigSet             
00000821  SysCtlPIOSCCalibrate            
00000871  SysCtlResetBehaviorSet          
00000881  SysCtlResetBehaviorGet          
000008d1  SysCtlClockFreqSet              
00000bc9  SysCtlClockSet                  
00000d99  SysCtlClockGet                  
00000f3f  SysCtlDeepSleepClockSet         
00000f5d  SysCtlDeepSleepClockConfigSet   
00000fe7  SysCtlPWMClockSet               
00001001  SysCtlPWMClockGet               
00001017  SysCtlGPIOAHBEnable             
00001033  SysCtlGPIOAHBDisable            
0000104f  SysCtlUSBPLLEnable              
0000105b  SysCtlUSBPLLDisable             
0000106d  SysCtlVoltageEventConfig        
0000107d  SysCtlVoltageEventStatus        
00001089  SysCtlVoltageEventClear         
000010a1  SysCtlVCOGet                    
0000115d  SysCtlNMIStatus                 
00001171  SysCtlNMIClear                  
0000118d  SysCtlClockOutConfig            
000011a9  SysCtlAltClkConfig              
000011b9  SysTickEnable                   
000011c5  SysTickDisable                  
000011d1  SysTickIntRegister              
000011e9  SysTickIntUnregister            
000011fd  SysTickIntEnable                
00001209  SysTickIntDisable               
00001215  SysTickPeriodSet                
00001227  SysTickPeriodGet                
0000122f  SysTickValueGet                 
00001245  main                            
00001277  SetInitSettings                 
000012c1  SysTickInit                     
000012d3  systicintcontrol                
00001331  GPIOPadConfigSet                
0000149d  IntDisable                      
00001505  IntEnable                       
0000156d  __TI_auto_init_nobinit_nopinit  
000015b1  _c_int00_noargs                 
000015e9  IntRegister                     
0000161d  GPIODirModeSet                  
00001649  GPIOPinTypeGPIOOutput           
00001663  GPIOPinTypeGPIOInput            
00001679  IntUnregister                   
0000168d  __TI_zero_init_nomemset         
0000169f  IntMasterEnable                 
000016af  CPUcpsie                        
000016bb  ResetISR                        
000016c7  GPIOPinWrite                    
000016cd  SysCtlDelay                     
000016d3  CPUwfi                          
000016d7  _system_pre_init                
000016db  C$$EXIT                         
000016db  abort                           
00001968  __TI_Handler_Table_Base         
0000196c  __TI_CINIT_Base                 
0000196c  __TI_Handler_Table_Limit        
00001974  __TI_CINIT_Limit                
20000000  g_pfnRAMVectors                 
20000270  __stack                         
20000470  __STACK_END                     
20000470  __STACK_TOP                     
ffffffff  __TI_pprof_out_hndl             
ffffffff  __TI_prof_data_size             
ffffffff  __TI_prof_data_start            
ffffffff  __binit__                       
ffffffff  __c_args__                      
ffffffff  binit                           
UNDEFED   __mpu_init                      
UNDEFED   _system_post_cinit              

[107 symbols]
