******************************************************************************
                  TI ARM Linker PC v18.1.3                     
******************************************************************************
>> Linked Mon Nov 16 20:00:37 2020

OUTPUT FILE NAME:   <systickapikesmeli.out>
ENTRY POINT SYMBOL: "_c_int00_noargs"  address: 000016c5


MEMORY CONFIGURATION

         name            origin    length      used     unused   attr    fill
----------------------  --------  ---------  --------  --------  ----  --------
  FLASH                 00000000   00040000  00001aae  0003e552  R  X
  SRAM                  20000000   00008000  00000470  00007b90  RW X


SEGMENT ALLOCATION MAP

run origin  load origin   length   init length attrs members
----------  ----------- ---------- ----------- ----- -------
00000000    00000000    00001ab0   00001ab0    r-x
  00000000    00000000    0000026c   0000026c    r-- .intvecs
  0000026c    0000026c    00001596   00001596    r-x .text
  00001804    00001804    0000027c   0000027c    r-- .const
  00001a80    00001a80    00000030   00000030    r-- .cinit
20000000    20000000    00000470   00000000    rw-
  20000000    20000000    0000026c   00000000    rw- .vtable
  2000026c    2000026c    00000004   00000000    rw- .data
  20000270    20000270    00000200   00000000    rw- .stack


SECTION ALLOCATION MAP

 output                                  attributes/
section   page    origin      length       input sections
--------  ----  ----------  ----------   ----------------
.intvecs   0    00000000    0000026c     
                  00000000    0000026c     tm4c123gh6pm_startup_ccs.obj (.intvecs)

.text      0    0000026c    00001596     
                  0000026c    000010d4     main.obj (.text)
                  00001340    0000016c     driverlib.lib : gpio.obj (.text:GPIOPadConfigSet)
                  000014ac    0000009c     rtsv7M4_T_le_v4SPD16_eabi.lib : memcpy_t2.asm.obj (.text)
                  00001548    00000068     driverlib.lib : interrupt.obj (.text:IntDisable)
                  000015b0    00000068                   : interrupt.obj (.text:IntEnable)
                  00001618    00000068     rtsv7M4_T_le_v4SPD16_eabi.lib : copy_decompress_lzss.c.obj (.text:decompress:lzss:__TI_decompress_lzss)
                  00001680    00000044                                   : autoinit.c.obj (.text:__TI_auto_init_nobinit_nopinit:__TI_auto_init_nobinit_nopinit)
                  000016c4    00000038                                   : boot_cortex_m.c.obj (.text:_c_int00_noargs:_c_int00_noargs)
                  000016fc    00000034     driverlib.lib : interrupt.obj (.text:IntRegister)
                  00001730    0000002c                   : gpio.obj (.text:GPIODirModeSet)
                  0000175c    0000001a                   : gpio.obj (.text:GPIOPinTypeGPIOOutput)
                  00001776    00000016                   : gpio.obj (.text:GPIOPinTypeGPIOInput)
                  0000178c    00000014                   : interrupt.obj (.text:IntUnregister)
                  000017a0    00000012     rtsv7M4_T_le_v4SPD16_eabi.lib : copy_zero_init.c.obj (.text:decompress:ZI:__TI_zero_init_nomemset:__TI_zero_init_nomemset)
                  000017b2    00000010     driverlib.lib : interrupt.obj (.text:IntMasterEnable)
                  000017c2    0000000e     rtsv7M4_T_le_v4SPD16_eabi.lib : copy_decompress_none.c.obj (.text:decompress:none:__TI_decompress_none)
                  000017d0    0000000c     driverlib.lib : cpu.obj (.text:CPUcpsie)
                  000017dc    0000000c     tm4c123gh6pm_startup_ccs.obj (.text)
                  000017e8    00000006     driverlib.lib : gpio.obj (.text:GPIOPinWrite)
                  000017ee    00000006     main.obj (.text:SysCtlDelay)
                  000017f4    00000004     driverlib.lib : cpu.obj (.text:CPUwfi)
                  000017f8    00000004     rtsv7M4_T_le_v4SPD16_eabi.lib : pre_init.c.obj (.text:_system_pre_init)
                  000017fc    00000004                                   : exit.c.obj (.text:abort:abort)
                  00001800    00000002     driverlib.lib : interrupt.obj (.text:_IntDefaultHandler)

.const     0    00001804    0000027c     
                  00001804    000001b0     main.obj (.const:g_pppui32XTALtoVCO)
                  000019b4    0000006c     main.obj (.const:g_pui32Xtals)
                  00001a20    00000030     main.obj (.const:g_sXTALtoMEMTIM)
                  00001a50    00000014     driverlib.lib : interrupt.obj (.const:g_pui32Dii16Regs)
                  00001a64    00000014                   : interrupt.obj (.const:g_pui32EnRegs)
                  00001a78    00000008     main.obj (.const:g_pui32VCOFrequencies)

.cinit     0    00001a80    00000030     
                  00001a80    0000000c     (__TI_handler_table)
                  00001a8c    00000004     --HOLE-- [fill = 0]
                  00001a90    00000008     (.cinit..vtable.load) [load image, compression = zero_init]
                  00001a98    00000007     (.cinit..data.load) [load image, compression = lzss]
                  00001a9f    00000001     --HOLE-- [fill = 0]
                  00001aa0    00000010     (__TI_cinit_table)

.init_array 
*          0    00000000    00000000     UNINITIALIZED

.vtable    0    20000000    0000026c     UNINITIALIZED
                  20000000    0000026c     driverlib.lib : interrupt.obj (.vtable)

.data      0    2000026c    00000004     UNINITIALIZED
                  2000026c    00000004     main.obj (.data)

.stack     0    20000270    00000200     UNINITIALIZED
                  20000270    00000004     rtsv7M4_T_le_v4SPD16_eabi.lib : boot_cortex_m.c.obj (.stack)
                  20000274    000001fc     --HOLE--

MODULE SUMMARY

       Module                         code   ro data   rw data
       ------                         ----   -------   -------
    .\
       main.obj                       4314   596       4      
       tm4c123gh6pm_startup_ccs.obj   12     620       0      
    +--+------------------------------+------+---------+---------+
       Total:                         4326   1216      4      
                                                              
    C:/ti/TivaWare_C_Series-2.2.0.295/driverlib/ccs/Debug/driverlib.lib
       interrupt.obj                  298    40        620    
       gpio.obj                       462    0         0      
       cpu.obj                        16     0         0      
    +--+------------------------------+------+---------+---------+
       Total:                         776    40        620    
                                                              
    C:\ti\ccsv8\tools\compiler\ti-cgt-arm_18.1.3.LTS\lib\rtsv7M4_T_le_v4SPD16_eabi.lib
       memcpy_t2.asm.obj              156    0         0      
       copy_decompress_lzss.c.obj     104    0         0      
       autoinit.c.obj                 68     0         0      
       boot_cortex_m.c.obj            56     0         0      
       copy_zero_init.c.obj           18     0         0      
       copy_decompress_none.c.obj     14     0         0      
       exit.c.obj                     4      0         0      
       pre_init.c.obj                 4      0         0      
    +--+------------------------------+------+---------+---------+
       Total:                         424    0         0      
                                                              
       Stack:                         0      0         512    
       Linker Generated:              0      43        0      
    +--+------------------------------+------+---------+---------+
       Grand Total:                   5526   1299      1136   


LINKER GENERATED COPY TABLES

__TI_cinit_table @ 00001aa0 records: 2, size/record: 8, table size: 16
	.vtable: load addr=00001a90, load size=00000008 bytes, run addr=20000000, run size=0000026c bytes, compression=zero_init
	.data: load addr=00001a98, load size=00000007 bytes, run addr=2000026c, run size=00000004 bytes, compression=lzss


LINKER GENERATED HANDLER TABLE

__TI_handler_table @ 00001a80 records: 3, size/record: 4, table size: 12
	index: 0, handler: __TI_zero_init
	index: 1, handler: __TI_decompress_lzss
	index: 2, handler: __TI_decompress_none


GLOBAL SYMBOLS: SORTED ALPHABETICALLY BY Name 

address   name                            
-------   ----                            
000017fd  C$$EXIT                         
000017d1  CPUcpsie                        
000017f5  CPUwfi                          
00001731  GPIODirModeSet                  
00001341  GPIOPadConfigSet                
00001777  GPIOPinTypeGPIOInput            
0000175d  GPIOPinTypeGPIOOutput           
000017e9  GPIOPinWrite                    
00001549  IntDisable                      
000015b1  IntEnable                       
000017b3  IntMasterEnable                 
000016fd  IntRegister                     
0000178d  IntUnregister                   
000017dd  ResetISR                        
00001275  SetInitSettings                 
000011a9  SysCtlAltClkConfig              
000008d1  SysCtlClockFreqSet              
00000d99  SysCtlClockGet                  
0000118d  SysCtlClockOutConfig            
00000bc9  SysCtlClockSet                  
000007d5  SysCtlDeepSleep                 
00000f5d  SysCtlDeepSleepClockConfigSet   
00000f3f  SysCtlDeepSleepClockSet         
000007b5  SysCtlDeepSleepPowerSet         
000017ef  SysCtlDelay                     
00000363  SysCtlFlashSectorSizeGet        
00000337  SysCtlFlashSizeGet              
00001033  SysCtlGPIOAHBDisable            
00001017  SysCtlGPIOAHBEnable             
00000749  SysCtlIntClear                  
00000731  SysCtlIntDisable                
0000071d  SysCtlIntEnable                 
000006f5  SysCtlIntRegister               
00000759  SysCtlIntStatus                 
0000070d  SysCtlIntUnregister             
0000079b  SysCtlLDODeepSleepGet           
0000078b  SysCtlLDODeepSleepSet           
00000785  SysCtlLDOSleepGet               
00000775  SysCtlLDOSleepSet               
0000080b  SysCtlMOSCConfigSet             
00001171  SysCtlNMIClear                  
0000115d  SysCtlNMIStatus                 
00000821  SysCtlPIOSCCalibrate            
00001001  SysCtlPWMClockGet               
00000fe7  SysCtlPWMClockSet               
000006a1  SysCtlPeripheralClockGating     
00000659  SysCtlPeripheralDeepSleepDisable
00000609  SysCtlPeripheralDeepSleepEnable 
00000545  SysCtlPeripheralDisable         
00000509  SysCtlPeripheralEnable          
00000445  SysCtlPeripheralPowerOff        
00000409  SysCtlPeripheralPowerOn         
00000389  SysCtlPeripheralPresent         
000003c9  SysCtlPeripheralReady           
00000481  SysCtlPeripheralReset           
000005cd  SysCtlPeripheralSleepDisable    
00000589  SysCtlPeripheralSleepEnable     
000007c5  SysCtlReset                     
00000881  SysCtlResetBehaviorGet          
00000871  SysCtlResetBehaviorSet          
000007f7  SysCtlResetCauseClear           
000007f1  SysCtlResetCauseGet             
0000032d  SysCtlSRAMSizeGet               
000007cd  SysCtlSleep                     
000007a1  SysCtlSleepPowerSet             
0000105b  SysCtlUSBPLLDisable             
0000104f  SysCtlUSBPLLEnable              
000010a1  SysCtlVCOGet                    
00001089  SysCtlVoltageEventClear         
0000106d  SysCtlVoltageEventConfig        
0000107d  SysCtlVoltageEventStatus        
000011c5  SysTickDisable                  
000011b9  SysTickEnable                   
000012bf  SysTickInit                     
00001209  SysTickIntDisable               
000011fd  SysTickIntEnable                
000011d1  SysTickIntRegister              
000011e9  SysTickIntUnregister            
00001227  SysTickPeriodGet                
00001215  SysTickPeriodSet                
0000122f  SysTickValueGet                 
00001235  SysTick_IntHandler              
20000470  __STACK_END                     
00000200  __STACK_SIZE                    
20000470  __STACK_TOP                     
00001aa0  __TI_CINIT_Base                 
00001ab0  __TI_CINIT_Limit                
00001a80  __TI_Handler_Table_Base         
00001a8c  __TI_Handler_Table_Limit        
00001681  __TI_auto_init_nobinit_nopinit  
00001619  __TI_decompress_lzss            
000017c3  __TI_decompress_none            
ffffffff  __TI_pprof_out_hndl             
ffffffff  __TI_prof_data_size             
ffffffff  __TI_prof_data_start            
00000000  __TI_static_base__              
000017a1  __TI_zero_init_nomemset         
000014ad  __aeabi_memcpy                  
000014ad  __aeabi_memcpy4                 
000014ad  __aeabi_memcpy8                 
ffffffff  __binit__                       
ffffffff  __c_args__                      
UNDEFED   __mpu_init                      
20000270  __stack                         
000016c5  _c_int00_noargs                 
UNDEFED   _system_post_cinit              
000017f9  _system_pre_init                
2000026c  a                               
000017fd  abort                           
ffffffff  binit                           
20000000  g_pfnRAMVectors                 
00000000  g_pfnVectors                    
0000125d  main                            
000014ad  memcpy                          
000012db  systicintcontrol                


GLOBAL SYMBOLS: SORTED BY Symbol Address 

address   name                            
-------   ----                            
00000000  __TI_static_base__              
00000000  g_pfnVectors                    
00000200  __STACK_SIZE                    
0000032d  SysCtlSRAMSizeGet               
00000337  SysCtlFlashSizeGet              
00000363  SysCtlFlashSectorSizeGet        
00000389  SysCtlPeripheralPresent         
000003c9  SysCtlPeripheralReady           
00000409  SysCtlPeripheralPowerOn         
00000445  SysCtlPeripheralPowerOff        
00000481  SysCtlPeripheralReset           
00000509  SysCtlPeripheralEnable          
00000545  SysCtlPeripheralDisable         
00000589  SysCtlPeripheralSleepEnable     
000005cd  SysCtlPeripheralSleepDisable    
00000609  SysCtlPeripheralDeepSleepEnable 
00000659  SysCtlPeripheralDeepSleepDisable
000006a1  SysCtlPeripheralClockGating     
000006f5  SysCtlIntRegister               
0000070d  SysCtlIntUnregister             
0000071d  SysCtlIntEnable                 
00000731  SysCtlIntDisable                
00000749  SysCtlIntClear                  
00000759  SysCtlIntStatus                 
00000775  SysCtlLDOSleepSet               
00000785  SysCtlLDOSleepGet               
0000078b  SysCtlLDODeepSleepSet           
0000079b  SysCtlLDODeepSleepGet           
000007a1  SysCtlSleepPowerSet             
000007b5  SysCtlDeepSleepPowerSet         
000007c5  SysCtlReset                     
000007cd  SysCtlSleep                     
000007d5  SysCtlDeepSleep                 
000007f1  SysCtlResetCauseGet             
000007f7  SysCtlResetCauseClear           
0000080b  SysCtlMOSCConfigSet             
00000821  SysCtlPIOSCCalibrate            
00000871  SysCtlResetBehaviorSet          
00000881  SysCtlResetBehaviorGet          
000008d1  SysCtlClockFreqSet              
00000bc9  SysCtlClockSet                  
00000d99  SysCtlClockGet                  
00000f3f  SysCtlDeepSleepClockSet         
00000f5d  SysCtlDeepSleepClockConfigSet   
00000fe7  SysCtlPWMClockSet               
00001001  SysCtlPWMClockGet               
00001017  SysCtlGPIOAHBEnable             
00001033  SysCtlGPIOAHBDisable            
0000104f  SysCtlUSBPLLEnable              
0000105b  SysCtlUSBPLLDisable             
0000106d  SysCtlVoltageEventConfig        
0000107d  SysCtlVoltageEventStatus        
00001089  SysCtlVoltageEventClear         
000010a1  SysCtlVCOGet                    
0000115d  SysCtlNMIStatus                 
00001171  SysCtlNMIClear                  
0000118d  SysCtlClockOutConfig            
000011a9  SysCtlAltClkConfig              
000011b9  SysTickEnable                   
000011c5  SysTickDisable                  
000011d1  SysTickIntRegister              
000011e9  SysTickIntUnregister            
000011fd  SysTickIntEnable                
00001209  SysTickIntDisable               
00001215  SysTickPeriodSet                
00001227  SysTickPeriodGet                
0000122f  SysTickValueGet                 
00001235  SysTick_IntHandler              
0000125d  main                            
00001275  SetInitSettings                 
000012bf  SysTickInit                     
000012db  systicintcontrol                
00001341  GPIOPadConfigSet                
000014ad  __aeabi_memcpy                  
000014ad  __aeabi_memcpy4                 
000014ad  __aeabi_memcpy8                 
000014ad  memcpy                          
00001549  IntDisable                      
000015b1  IntEnable                       
00001619  __TI_decompress_lzss            
00001681  __TI_auto_init_nobinit_nopinit  
000016c5  _c_int00_noargs                 
000016fd  IntRegister                     
00001731  GPIODirModeSet                  
0000175d  GPIOPinTypeGPIOOutput           
00001777  GPIOPinTypeGPIOInput            
0000178d  IntUnregister                   
000017a1  __TI_zero_init_nomemset         
000017b3  IntMasterEnable                 
000017c3  __TI_decompress_none            
000017d1  CPUcpsie                        
000017dd  ResetISR                        
000017e9  GPIOPinWrite                    
000017ef  SysCtlDelay                     
000017f5  CPUwfi                          
000017f9  _system_pre_init                
000017fd  C$$EXIT                         
000017fd  abort                           
00001a80  __TI_Handler_Table_Base         
00001a8c  __TI_Handler_Table_Limit        
00001aa0  __TI_CINIT_Base                 
00001ab0  __TI_CINIT_Limit                
20000000  g_pfnRAMVectors                 
2000026c  a                               
20000270  __stack                         
20000470  __STACK_END                     
20000470  __STACK_TOP                     
ffffffff  __TI_pprof_out_hndl             
ffffffff  __TI_prof_data_size             
ffffffff  __TI_prof_data_start            
ffffffff  __binit__                       
ffffffff  __c_args__                      
ffffffff  binit                           
UNDEFED   __mpu_init                      
UNDEFED   _system_post_cinit              

[115 symbols]
